:1011BE00602020433A5C4849445F524543562E45D1
:1011CE0058452020200D2020200012011001000083
:1011DE000008315107200011000000010501090629
:1011EE00A101050719E029E71500250195087501EC
:1011FE0081029508750181010508190129039503DE
:10120E0075019102950175059101050719002AFFD7
:10121E0000150026FF00950675088100C00600FF28
:10122E000901A101090215002600FF7508954081EC
:10123E0006090215002600FF750895409106C009A3
:10124E00024200020100A032090400000103010164
:10125E000009211101000122410007058103080048
:10126E000A090401000203000000092110012101F6
:10127E0022220007058203400032070502034000C8
:10128E000A00000000000000000000000000000046
:09129E0000000000000000000047
:10109F00430124FF11BE6040017E000000000000EC
:1010AF000000000000000000000000000000000031
:1010BF000000000000000000000000000000000021
:1010CF000000000000000000000000000000000011
:1010DF00000000000000000000004800D0000000E9
:1010EF000000000000604000E2000000000000006F
:1010FF0000000000000000000000000000000000E1
:10110F0000000000000000000000000000000000D0
:10111F0000000000000000000000000000000000C0
:10112F000000000000000000006040012A000000E5
:10113F0000000000000000000000000000000000A0
:10114F000000000000000000000000000000000090
:10115F000000000000000000000000000000000080
:10116F000000000000000000000000000041016DC1
:10117F000041016B0041016C004101270042017CDD
:10118F0000004101230042017700004800DA00000F
:06119F000000000000004A
:10179D00C2EAE4F5E275EF0075EE0A75ED0075EC41
:1017AD000075E50075E45043EA4075D21275DC0210
:1017BD0043EB0C75D412F5E375D18075E22943D155
:0A17CD000175D8FF75E107D2EA228A
:1018B800780A7C007D017B017A0079D07E007F0860
:1018C80012011675D30853D2FCE5D2540360FA22EC
:1018D80078907C007D017B017A01797E7E007F40D3
:1018E80012011675D54053D4FCE5D4540360FA228E
:030043000204D3E1
:0D04D300C0E0C0F0C083C082C0D075D0086A
:1004E00020D9030208EBE5D9543F70030208D82451
:1004F000FE602324E2700302085914605224F16064
:1005000062240E60030208E975D500E5D454FC446A
:1005100002F5D40208E99001BEE5DBF0E0D3944097
:1005200040037440F09001BEE0FF7E0078E27C0062
:100530007D017B017A0079501201169001BEE09096
:1005400000D8F090016E7401F053D4F30208E975FD
:10055000D300E5D254FC4402F5D29001227401F09C
:100560000208E99001BEE5DBF0E0640860030208E0
:100570002B900006E0900129F0900007E0700990B0
:100580000129E0D3947F4006900129747FF0900107
:10059000BEE4F0900000E0FF54606026EFB4210B51
:1005A000A3E0B409069001287401F0900000E0B4C3
:1005B0002108A3E0B40A0375DD009001BEE4F00257
:1005C0000831900001E090016AF0E0B40B004003B4
:1005D0000208219005DAF82828730207FF0207189D
:1005E0000208210207610208210206E50205FB025A
:1005F00008210206F002070D020831900003E024F2
:10060000FE601E24E060302421706B90017974FF3D
:10061000F0A37411F0A374D8F09001BE7412F080AE
:100620005B90017974FFF0A37412F0A3744DF09005
:1006300001BE7442F08045900004E0FF7016900106
:100640007974FFF0A37411F0A374EAF09001BE7402
:1006500041F08028EFB4011690017974FFF0A37483
:1006600012F0A3742BF09001BE7422F0800E900162
:10067000BE74FFF080069001BE74FFF09001BEE0F2
:10068000FFF47003020831900129E0D39F400890E5
:1006900001BEE0900129F0900129E0C394084004D4
:1006A0007F088005900129E0FF9001BEEFF0E0FF98
:1006B0007E0078007C007D01900179E0FBA3E0FAE8
:1006C000A3E0F9120116900129E0FF9001BEE0FEBF
:1006D000C3EF9E900129F0EEFF90017AE48FF012B3
:1006E00001A4020831900002E0900129F0020831D3
:1006F0009000D9E0900000F0900129E0C3940150EF
:10070000030208319001BE7401F00208319000022A
:10071000E09000D9F0020831900000E0541F64021C
:100720007036900004E014601D2480600E14701C6C
:10073000E5D454BC4402F5D4020831E5D254BC449B
:1007400002F5D202083153D2730208319001BE740F
:10075000FFF00208310208319001BE74FFF0020878
:1007600031900000E0541FFD702D900003E0FE90DA
:100770000002E0FBEEEB64014E70139012549330D4
:10078000E5030208319001BE74FFF00208319001C8
:10079000BE74FFF0020831ED6402705B900003E06C
:1007A000FE900002E0FDEEED4E7044900005E0FE8C
:1007B000900004E0FDEEEDFFEE702AEF24FE6011E4
:1007C0002481601714701EE5D454BF4403F5D4800F
:1007D00060E5D4547F440CF5D48056E5D254BF4430
:1007E00003F5D2804C9001BE74FFF08044804290AB
:1007F00001BE74FFF0803A9001BE74FFF080329029
:100800000000E4F0A3F0900129E0C39402400890B6
:1008100001BE7402F0801A900129E09001BEF080C0
:10082000109001BE74FFF0800880069001BE74FF36
:10083000F09001BEE0FFB4FF0990016A74FFF0027E
:1008400008E9EFD3940850088FDD75DCC00208E991
:1008500075DD0075DCC00208E990016AE024FB60E8
:1008600059147065900129E0C3940840047F088002
:1008700005900129E0FF9001BEEFF0E0FF7E0078D7
:10088000007C007D01900179E0FBA3E0FAA3E0F990
:10089000120116900129E0FF9001BEE0FEC3EF9E19
:1008A000900129F0EEFF90017AE48FF01201A490FC
:1008B00001BEE0F5DD63DC40800FE5E35480FF908E
:1008C0000129E04FF5E375DC029001BEE0B4FF19A9
:1008D00075DD0075DC0280119001BEE5DBF0900152
:1008E0006AE0FF75DD0075DC00C2D930D81275DC16
:1008F0000275D21075D41275E300C2DAC2D9C2D81B
:1009000030DA23C2DAE5DA30E21FE5A220E7FB7530
:10091000A15575A1AA75A98143870275A15575A135
:09092000AA75A900800375D8FF37
:0B092900D0D0D082D083D0F0D0E032DC
:100E460012013CFEC3648094E1400CD3EE648094AE
:100E5600FA5004EE24E0FEC3EE648094C14012D33F
:100E6600EE648094DA500AEE24C39000D2F0020FAA
:100E760043C3EE648094B14012D3EE648094B950BB
:100E86000AEE24ED9000D2F0020F43EE1202C50ED8
:100E9600DB0D0ED3200F37210EF12B0F222E0F0C58
:100EA6002F0F1A300EE33A0ECB5C0EFE5F0EBD60BE
:100EB6000F2A7E00000F439000D07408F09000D2F5
:100EC6007415F080789000D27431F080709000D262
:100ED6007402F080689000D27428F080609000D090
:100EE6007402F09000D27433F08052E49000D0F097
:100EF6009000D27457F080459000D07402F09000B4
:100F0600D2742DF080379000D07405F09000D27422
:100F160016F080299000D27427F080219000D274B8
:100F260037F080199000D07404F09000D204F0805D
:100F36000C9000D07404F09000D27408F07F147EF8
:100F460000121944900122E060FA1218B8900122AA
:100F5600E060FA7F147E00121944E49000D0F0900D
:100F660000D2F0900122E060FA1218B8900122E057
:020F760060FA1F
:010F78002256
:10186E0090004F7401F01216CE90004FE0247EF5DA
:10187E0082E43401F583E02FF090004FE004F0E0B5
:05188E00C3944040E19D
:011893002232
:100CE00012013C9001CBF07E007F087D007B017AF1
:100CF0000079D012049B9001CBE0FFC3648094E1A3
:100D0000400CD3EF648094FA5004EF24E0F090019B
:100D1000CBE0FFC3648094C14012D3EF648094DAC7
:100D2000500AEF24C39000D2F0020E109001CBE0E5
:100D3000FFC3648094B14012D3EF648094B9500A29
:100D4000EF24ED9000D2F0020E109001CBE01202E1
:100D5000C50DA80D0DA0200E04210D7C230DBE2B6A
:100D60000DEF2E0DD92F0DE7300DB03A0D985C0D1B
:100D7000CB5F0D8A600DF77E00000E10E49000D06E
:100D8000F09000D27440F0020E109000D07408F081
:100D90009000D27415F080789000D27431F0807099
:100DA0009000D27402F080689000D27428F08060C5
:100DB0009000D07402F09000D27433F08052E4902E
:100DC00000D0F09000D27457F080459000D07402AB
:100DD000F09000D2742DF080379000D07405F09020
:100DE00000D27416F080299000D27427F0802190F0
:100DF00000D27437F080199000D07404F09000D2C3
:100E000004F0800C9000D07404F09000D27408F0CC
:100E10007F147E00121944900122E060FA1218B883
:100E2000900122E060FA7F147E00121944E49000E1
:100E3000D0F09000D2F0900122E060FA1218B89041
:050E40000122E060FA50
:010E4500228A
:10158E0078CB7C017D017BFF7A12798F7E007F08FC
:10159E00120116E49001D3F07B017A0179CB7D081C
:1015AE007F4012171B9001D3EFF06408704778D07C
:1015BE007C007D017B017A0179CB7E007F081201D0
:1015CE0016900122E060FA1218B8900122E060FA3B
:1015DE007F147E001219447E007F087D007B017A05
:1015EE000079D012049B900122E060FA1218B89094
:0515FE000122E060FA8B
:0116030022C4
:0B1841009001DFEBF0A3EAF0A3E9F058
:10184C00E4FF7E01EEC39D50189001DFE0FBA3E0A6
:10185C00FAA3E0F98E827583001201552FFF0E80DA
:01186C00E398
:01186D002258
:0E166F009001D9EBF0A3EAF0A3E9F0A3EDF0AF
:10167D00E4A3F0A3F0FC9001D9E0FBA3E0FAA3E012
:10168D00F990000112015564AA60037F00229000B9
:10169D0002120155FCFD1218419001DDEFF0900191
:1016AD00D9E0FBA3E0FAA3E0F9CEECCE8E827583F0
:1016BD00001201559001DEF06F60037F00227F0163
:0116CD0022FA
:100934009001C0EFF0FD7B017A0079E212166FEFAF
:050944007003020CAA83
:100949009000E5E09001C1F024E17003020A0D1462
:100959007003020AA124F17003020B35241F6003FE
:03096900020CDF9E
:10096C00E49001C2F0A3740CF0E4A3F090016B04CA
:10097C00F090012AF0A374AAF09001C3E090012C2E
:10098C00F09001C1E090012DF0E4A3F0A304F0E499
:10099C00A3F0A37404F0A37431F0A37451F0A37406
:1009AC0007F0A37420F09001C47401F09001C4E02E
:1009BC00FFC3940C501A742A2FF582E43401F5838A
:1009CC00E0FF9001C2E02FF09001C4E004F080DC65
:1009DC009001C2E0900136F07E007F337D007B01F8
:1009EC007A01793712049B78907C007D017B017A27
:1009FC0001792A7E007F4012011675D54053D4FC34
:010A0C0022C7
:100A0D00E49001C2F0A37405F0E4A3F0900127E097
:100A1D00700BC29604F0E490017CF0A3F090012AD3
:100A2D007401F0A374AAF09001C3E090012CF09032
:100A3D0001C1E090012DF0E4A3F09001C404F09009
:100A4D0001C4E0FFC39405501A742A2FF582E434D3
:100A5D0001F583E0FF9001C2E02FF09001C4E004A6
:100A6D00F080DC9001C2E090012FF07E007F3A7D96
:100A7D00007B017A01793012049B78907C007D0116
:100A8D007B017A01792A7E007F4012011675D540CF
:040A9D0053D4FC2210
:100AA100E49001C2F0A37405F0E4A3F0900123E007
:100AB100700BC29604F0E4900177F0A3F090012A44
:100AC1007401F0A374AAF09001C3E090012CF0909E
:100AD10001C1E090012DF0E4A3F09001C404F09075
:100AE10001C4E0FFC39405501A742A2FF582E4343F
:100AF10001F583E0FF9001C2E02FF09001C4E00412
:100B0100F080DC9001C2E090012FF07E007F3A7D01
:100B1100007B017A01793012049B78907C007D0181
:100B21007B017A01792A7E007F4012011675D5403A
:040B310053D4FC227B
:100B350078C27C017D017BFF7A1279977E007F0860
:100B450012011678CA7C017D017BFF7A12799F7E9E
:100B5500007F08120116E49001D2F0A3F0A3F0A3E0
:100B6500F0A3740DF0E4A3F0A3F078C27C017D013D
:100B75007B017A0079E6FE7F081201167B017A0176
:100B850079CA7D087F4012171B9001D2EFF06408E7
:100B95006003020CDF78C27C017D017B017A01795B
:100BA500CA7E007F08120477EF7003020CDF7D0810
:100BB5007F4012175E9001D3EFF064086003020CCA
:100BC500DF7B017A0179C29001DD7408F07F401264
:100BD50016049001D4EFF064086003020CDF7B017A
:100BE5007A0179CA7D087F4012171B9001D2EFF078
:100BF50064086003020CDF78DA7C007D017B017AF2
:100C05000179CA7E007F0812011690012A7401F04D
:100C1500A374AAF09001D6E090012CF09001C1E0F8
:100C250090012DF0E4A3F0782F7C017D017B017A02
:100C35000179CAFE7F081201169001D57401F09062
:100C450001D6E02401FFE433FE9001D5E0FDC39F0A
:100C5500EE6480F8748098501A742A2DF582E43475
:100C650001F583E0FF9001D8E02FF09001D5E00475
:100C7500F080CC9001D8E0900137F07E007F327D86
:100C8500007B017A01793812049B78907C007D0104
:100C95007B017A01792A7E007F4012011675D540C5
:040CA50053D4FC2206
:100CA900229001C0E0FF7E00782A7C017D017B0152
:100CB9007A0079E21201169001C0E0FF7E00789077
:100CC9007C007D017B017A01792A1201169001C00D
:070CD900E0F5D553D4FC2225
:101972002300000000000000000000000000000042
:02198200000063
:0811A5004100080041000900AF
:1017D700E49001C0F0F0C2967F327E00121944D225
:1017E700967F327E001219449001C0E004F0E0D3E6
:1017F700940240E2C2AF7F0A7E0012194475A155D8
:0618070075A1AA43B11017
:01180D0022B8
:0F19A80090016CE004F0C3943240031217D72271
:0E0F7900EF24FE700302101304600302109EAA
:100F870078C07C017D017BFF7A1979747E007F0828
:100F97001201167B017A0179C07D087F4012171B69
:090FA7009001C8EFF064087047E6
:100FB0009001CA04F0E49001C9F09001C9E0FFC3B8
:100FC0009408501D74C02FF582E43401F583E0F4D9
:100FD0006007E49001CAF080089001C9E004F08045
:100FE000D99001CAE0600B7BFF7A197972120CE08C
:050FF000800E12158EB9
:100FF50080097BFF7A197972120CE0C2967F0A7E0E
:0E10050000121944D2967F0A7E00121944226E
:1010130078C07C017D017BFF7A19797C7E007F0893
:101023001201167B017A0179C07D087F4012171BDC
:091033009001C8EFF06408704759
:10103C009001CA04F0E49001C9F09001C9E0FFC32B
:10104C009408501D74C02FF582E43401F583E0F44C
:10105C006007E49001CAF080089001C9E004F080B8
:10106C00D99001CAE0600B7BFF7A197972120CE0FF
:05107C00800E12158E2C
:1010810080097BFF7A197972120CE0C2967F0A7E81
:0D10910000121944D2967F0A7E0012194405
:01109E00222F
:1012A700E49001BFF01219847F0A7E0012194412DC
:1012B700135EC2967F147E00121944D2967F147E65
:1012C700001219447B017A0079DA7D087F401217F2
:1012D7001B12179DD2AFE4F5D3F5D5900122F090FC
:1012E7000128F01218947BFF7A0F79791219D2121C
:0C12F700192C1219C57FF47E0112194455
:10130300900128E0601890016EE0600D9000D8E035
:10131300FF120934E490016EF01218F88030900047
:1013230008E004F0E0C394644024E4F0C2AFF5D3D2
:10133300F5D5900122F0900128F012179DD2AF90BD
:101343000009E004F0E0C3940340031217D775FFCC
:081353006F7F0A7E00121944AD
:02135B0080A66A
:01135D00226D
:0D19C50075A15575A1AA75FF4943B1012216
:1019840075A15575A1AAE5B954F84404F5B9E4F56F
:02199400A1228E
:0E19B700EF4E600905A1EF1F70011E80F322A4
:10194400AD07AC06ED4C600E7FE87E031219B7EDCF
:071954001D70011C80EE2252
:041A0C0043C610229B
:10135E00C29FD29EC29DC2CDC2CC4387809001C097
:10136E0012029400000082E47B0AFAF9F89001C0A0
:10137E00E0FCA3E0FDA3E0FEA3E0FF1201F6900166
:10138E00C4EBF09001C0E0FCA3E0FDA3E0FEA3E0FF
:10139E00FFE47B0AFAF9F81201F69001C0120288F6
:1013AE009001C4E0C3940540259001C0E0FCA3E089
:1013BE00FDA3E0FEA3E0FFE4FAF9F8EF2401FFEA53
:1013CE003EFEE93DFDE83CFC9001C0120288E58935
:1013DE00540F4420F58943C9A09001C0E0A3E0A3B7
:0D13EE00E0A3E0F404F58DD28ED299D29CDC
:0113FB0022CF
:080003003098FDC298AF99226C
:0819F4008F993099FDC2992280
:0A19EA00C2C7D2C5D2C475C2F322F1
:0819FC0030C0FDC2C0AFC122E2
:081A04008FC130C1FDD2C122E7
:10195B0075A15575A1AAEF600543B101800353B181
:07196B00FEE4F5A1F5FF22E7
:031A10008FFF2223
:0A11AD0043004C00000041004A001E
:1018940043928043938043920243930220910CE449
:1018A40090004BF090004A7403F022D29790004BC2
:0418B4007401F022A9
:0C19D20090004CEBF0A3EAF0A3E9F02237
:10151600E49001C0F090004AE014601514603F1496
:1015260060312403705720975990004A7401F08067
:10153600517F0A7E0012194420971190004A7403C5
:10154600F0A3E0703D9001C004F08036E490004ABC
:10155600F0802F30972C90004A7402F080247F0A86
:101566007E0012194430970DE490004AF09001C0B5
:101576007402F0800D90004A7403F08005E4900038
:071586004AF09001C0E0FFF4
:01158D00223B
:1018F800121516EF601590004CE0FBA3E0FAA3E088
:0B190800F94A600789828A831202EF0F
:0119130022B1
:0611B7004301E600000008
:10180E00EF7009E58954F04DF5898024EFB401118C
:10181E00CEEDCEEEC454F0FEE589540F4EF5898020
:10182E000FEFB40208C2CDC2CCC2C880037FFF2224
:03183E007F002206
:03000E00CBEFCB6A
:10001100C3E49DFFE49CCDEFCDFCEB7007EFF58AC7
:10002100ECF58C22EBB40107EDF58BECF58D22EBB1
:10003100B4020ECFEDCFEDF5CC8FCAECFFF5CD8F2D
:01004100CBF3
:01004200229B
:10199600C2CDC2CCC2C9D2CBD2C8EF25E025E04227
:0219A600C92254
:10191400C2CDC2CCD2C8C2C9EF25E025E0FFE5C9DB
:0819240054FD4F4401F5C922F6
:0C19DE009001E6EBF0A3EAF0A3E9F02290
:10192C0053C9EF7D01E4FF12180E7DF07CD8E4FF63
:08193C0012000ED28CD2A92288
:03000B000213FCE1
:1013FC00C0E0C0F0C083C082C0D075D0087DF07C46
:10140C00D8E4FF12000E9001E6E0FBA3E0FAA3E0A3
:10141C00F9EA494B600B9001E6E0A3E0A3E012026D
:10142C00EB900127E0B4012290017CE475F00112ED
:10143C0001A4FEC3E5F09450EE9400400DD29690BA
:10144C000127E4F090017CF0A3F0900123E0B401BB
:10145C0022900177E475F0011201A4FEC3E5F0942B
:10146C00DCEE9400400DD296900123E4F0900177CD
:0E147C00F0A3F0D0D0D082D083D0F0D0E032F8
:0B1604009001DAEBF0A3EAF0A3E9F09C
:10160F0075A15575A1AA43B104E4F5A17585C0EF85
:10161F0025E0FFE4FE9001DDE0FDEEC39D5032EECC
:10162F0025E02FF5849001DAE0FBA3E0FAA3E0F9BF
:10163F008E82758300120155F58EE58630E60375AF
:10164F00869AE5866440D394004003AF06220E804D
:0F165F00C475A15575A1AA53B1FBE4F5A1AF065F
:01166E002259
:0E171B009001D9EDF0A3EBF0A3EAF0A3E9F002
:101729007585C0EF25E0FFE4FE9001D9E0FDEEC329
:101739009D501FEE25E02FF58475868EA3E0FBA34F
:10174900E0FAA3E0F98E82758300E58E1201820E1C
:0417590080D7AF0680
:01175D002269
:10175E00E4FE75A15575A1AA43B104F5A17585C026
:10176E00EF25E0FFE4FCECC39D5015EC25E02FF5D2
:10177E0084758EFFE58630E60775869A0E0C80E638
:0E178E0075A15575A1AA53B1FBE4F5A1AF06F4
:01179C00222A
:0300000002148A5D
:0C148A00787FE4F6D8FD75810F0214D1C4
:10004600E709F608DFFA8046E709F208DFFA803E9C
:1000560088828C83E709F0A3DFFA8032E309F60889
:10006600DFFA8078E309F208DFFA807088828C83F1
:10007600E309F0A3DFFA806489828A83E0A3F608A5
:10008600DFFA805889828A83E0A3F208DFFA804C7F
:1000960080D280FA80C680D4806980F28033801056
:1000A60080A680EA809A80A880DA80E280CA8033BF
:1000B60089828A83ECFAE493A3C8C582C8CCC58337
:1000C600CCF0A3C8C582C8CCC583CCDFE9DEE78007
:1000D6000D89828A83E493A3F608DFF9ECFAA9F086
:1000E600EDFB2289828A83ECFAE0A3C8C582C8CCDC
:1000F600C583CCF0A3C8C582C8CCC583CCDFEADEF5
:10010600E880DB89828A83E493A3F208DFF980CC56
:1001160088F0EF60010E4E60C388F0ED2402B4044F
:100126000050B9F582EB2402B4040050AF232345F6
:0601360082239000967385
:10013C00BB010689828A83E0225002E722BBFE02C1
:09014C00E32289828A83E49322F4
:10015500BB010CE58229F582E5833AF583E022505F
:1001650006E92582F8E622BBFE06E92582F8E222A9
:0D017500E58229F582E5833AF583E49322C3
:10018200F8BB010DE58229F582E5833AF583E8F0B3
:10019200225006E92582C8F622BBFE05E92582C85F
:0201A200F22247
:1001A400C5F0F8A3E028F0C5F0F8E58215827002E6
:0601B4001583E038F02283
:1001BA0075F008758200EF2FFFEE33FECD33CDCCFC
:1001CA0033CCC58233C5829BED9AEC99E58298407F
:1001DA000CF582EE9BFEED9AFDEC99FC0FD5F0D65C
:1001EA00E4CEFBE4CDFAE4CCF9A88222B800C1B986
:1001FA000059BA002DEC8BF084CFCECDFCE5F0CBC4
:10020A00F97818EF2FFFEE33FEED33FDEC33FCEBFC
:10021A0033FB10D703994004EB99FB0FD8E5E4F9B7
:10022A00FA227818EF2FFFEE33FEED33FDEC33FCA4
:10023A00C933C910D7059BE99A4007EC9BFCE99A98
:10024A00F90FD8E0E4C9FAE4CCFB2275F010EF2FDD
:10025A00FFEE33FEED33FDCC33CCC833C810D707DD
:10026A009BEC9AE899400AED9BFDEC9AFCE899F818
:0E027A000FD5F0DAE4CDFBE4CCFAE4C8F922AB
:0C028800ECF0A3EDF0A3EEF0A3EFF022E9
:10029400A8828583F0D083D0821202AB1202AB1203
:1002A40002AB1202ABE473E493A3C583C5F0C58328
:1002B400C8C582C8F0A3C583C5F0C583C8C582C8B4
:0102C4002217
:1002C500D083D082F8E4937012740193700DA3A3C8
:1002D50093F8740193F5828883E4737402936860DC
:0602E500EFA3A3A380DFDC
:0602EB008A838982E4739E
:1016CE009001E21204C77810EC4D4E4F70047CA5C9
:1016DE007DA5C3EC13FCED13FDEE13FEEF13FF50CF
:1016EE0010EC64CCFCED644CFDEE644EFEEF64CE6B
:1016FE00FFD8DF9001E2120288EE547FFE229001A5
:0D170E00E2EEF0EFA3F0A374A5F0A3F0222B
:1002F100E3F5F009E208B5F06BDFF58067E3F5F0AF
:1003010009E608B5F05EDFF5805A87F009E608B521
:10031100F052DFF6804E87F009E208B5F046DFF6CD
:10032100804288828C8387F009E0A3B5F036DFF63E
:10033100803288828C8387F009E493A3B5F025DFAE
:10034100F5802188828C83E3F5F009E0A3B5F014F0
:10035100DFF5801088828C83E3F5F009E493A3B57F
:10036100F002DFF4020420808780E9809080D4804D
:100371003E8015806E807E809D80B7808D80A380B9
:10038100518074803C02042C89828A83ECFAE493C4
:10039100F5F0A3C8C582C8CCC583CCE493A3C8C576
:1003A10082C8CCC583CCB5F076DFE3DEE18070890D
:1003B100828A83E493F5F0A3E208B5F062DFF4806A
:1003C1005E89828A83E0F5F0A3E608B5F051DFF596
:1003D100804D89828A83E0F5F0A3E208B5F040DF21
:1003E100F5803C89828A83E493F5F0A3E608B5F0B1
:1003F1002EDFF4802A8002805789828A83ECFAE416
:1004010093F5F0A3C8C582C8CCC583CCE0A3C8C509
:1004110082C8CCC583CCB5F006DFE4DEE280007F84
:10042100FFB5F0020F2240027F012289828A83EC0C
:10043100FAE0F5F0A3C8C582C8CCC583CCE0A3C857
:10044100C582C8CCC583CCB5F0D5DFE5DEE380CF6E
:1004510089828A83ECFAE0F5F0A3C8C582C8CCC5CD
:1004610083CCE493A3C8C582C8CCC583CCB5F0AF17
:10047100DFE4DEE280A988F0EF60010E4E60ABEDB3
:100481002402B404005098F582EB2402B404005015
:0A0491008E23234582239003687335
:10049B00EF4E6012EF60010EEDBB010B89828A8378
:1004AB00F0A3DFFCDEFA2289F05007F709DFFCA985
:0C04BB00F022BBFEFCF309DFFCA9F022DC
:101496000212A7E493A3F8E493A34003F68001F2B3
:1014A60008DFF48029E493A3F85407240CC8C33357
:1014B600C4540F4420C8834004F456800146F6DF26
:1014C600E4800B010204081020408090109FE47E07
:1014D600019360BCA3FF543F30E509541FFEE4931B
:1014E600A360010ECF54C025E060A840B8E493A3E2
:1014F600FAE493A3F8E493A3C8C582C8CAC583CA0D
:10150600F0A3C8C582C8CAC583CADFE9DEE780BEC4
:0111BD000031
:0C04C700E0FCA3E0FDA3E0FEA3E0FF22A8
:00000001FF
