:1010E800422E3D2020253034780A007E00312E30F3
:1010F8002E3000602020433A5C4849445F52454303
:10110800562E4558452020200D2020200012011081
:1011180001000000083151072000110000000105FE
:10112800010906A101050719E029E7150025019520
:1011380008750181029508750181010508190129C1
:10114800039503750191029501750591010507192C
:10115800002AFF00150026FF00950675088100C0CB
:101168000600FF0901A101090215002600FF750804
:1011780095408106090215002600FF7508954091E3
:1011880006C009024200020100A032090400000161
:101198000301010009211101000122410007058115
:1011A8000308000A090401000203000000092110D5
:1011B80001210122220007058203400032070502AF
:0411C8000340000AD6
:100FD80043011DFF10FB6040017700000000000086
:100FE80000000000000000000000000000000000F9
:100FF80000000000000000000000000000000000E9
:1010080000000000000000000000000000000000D8
:10101800000000000000000000004800D1000000AF
:101028000000000000604000DB000000000000003D
:1010380000000000000000000000000000000000A8
:101048000000000000000000000000000000000098
:101058000000000000000000000000000000000088
:1010680000000000000000000060400123000000B4
:101078000000000000000000000000000000000068
:101088000000000000000000000000000000000058
:101098000000000000000000000000000000000048
:1010A8000000000000000000000000000041016690
:1010B80000410164004101650041012000420175C1
:0F10C800000041011C0042017000004100D000F7
:10160000C2EAE4F5E275EF0075EE0A75ED0075ECDF
:101610000075E50075E45043EA4075D21275DC02AE
:1016200043EB0C75D412F5E375D18075E22943D1F3
:0A1630000175D8FF75E107D2EA2228
:10174000780A7C007D017B017A0079D17E007F08D8
:101750001208DC75D30853D2FCE5D2540360FA2298
:1017600078907C007D017B017A0179777E007F4053
:101770001208DC75D54053D4FCE5D4540360FA223A
:0300430002004672
:0D004600C0E0C0F0C083C082C0D075D008FB
:1000530020D90302045EE5D9543F700302044B2404
:10006300FE602324E270030203CC14605224F16087
:1000730062240E600302045C75D500E5D454FC448D
:1000830002F5D402045C9001DFE5DBF0E0D3944099
:1000930040037440F09001DFE0FF7E0078DB7C00DA
:1000A3007D017B017A0079501208DC9001DFE0903A
:1000B30000D9F09001677401F053D4F302045C7526
:1000C300D300E5D254FC4402F5D290011B7401F035
:1000D30002045C9001DFE5DBF0E0640860030203E7
:1000E3009E900006E0900122F0900007E0700990D6
:1000F3000122E0D3947F4006900122747FF09001A7
:10010300DFE4F0900000E0FF54606026EFB4210BC1
:10011300A3E0B409069001217401F0900000E0B45B
:100123002108A3E0B40A0375DD009001DFE4F002C7
:1001330003A4900001E0900163F0E0B40B004003DE
:1001430002039490014DF828287302037202028B74
:100153000203940202D402039402025802016E02C3
:1001630003940202630202800203A4900003E024CA
:10017300FE601E24E060302421706B90017274FFD6
:10018300F0A37411F0A37415F09001DF7412F080E2
:100193005B90017274FFF0A37411F0A3748AF09062
:1001A30001DF7442F08045900004E0FF7016900177
:1001B3007274FFF0A37411F0A37427F09001DF743D
:1001C30041F08028EFB4011690017274FFF0A3741C
:1001D30011F0A37468F09001DF7422F0800E900197
:1001E300DF74FFF080069001DF74FFF09001DFE021
:1001F300FFF470030203A4900122E0D39F40089010
:1002030001DFE0900122F0900122E0C39408400452
:100213007F088005900122E0FF9001DFEFF0E0FF0F
:100223007E0078007C007D01900172E0FBA3E0FA80
:10023300A3E0F91208DC900122E0FF9001DFE0FE69
:10024300C3EF9E900122F0EEFF900173E48FF01252
:1002530009480203A4900002E0900122F00203A4E3
:100263009000DAE0900000F0900122E0C394015086
:10027300030203A49001DF7401F00203A4900002BF
:10028300E09000DAF00203A4900000E0541F64023F
:100293007036900004E014601D2480600E14701CFE
:1002A300E5D454BC4402F5D40203A4E5D254BC44BF
:1002B30002F5D20203A453D2730203A49001DF74A4
:1002C300FFF00203A40203A49001DF74FFF0020312
:1002D300A4900000E0541FFD702D900003E0FE90F9
:1002E3000002E0FBEEEB64014E701390119193302A
:1002F300E5030203A49001DF74FFF00203A490015D
:10030300DF74FFF00203A4ED6402705B900003E06E
:10031300FE900002E0FDEEED4E7044900005E0FE1D
:10032300900004E0FDEEEDFFEE702AEF24FE601175
:100333002481601714701EE5D454BF4403F5D480A0
:1003430060E5D4547F440CF5D48056E5D254BF44C1
:1003530003F5D2804C9001DF74FFF080448042901B
:1003630001DF74FFF0803A9001DF74FFF080329078
:100373000000E4F0A3F0900122E0C394024008904F
:1003830001DF7402F0801A900122E09001DFF08017
:10039300109001DF74FFF0800880069001DF74FF86
:1003A300F09001DFE0FFB4FF0990016374FFF002F6
:1003B300045CEFD3940850088FDD75DCC002045C45
:1003C30075DD0075DCC002045C900163E024FB6012
:1003D30059147065900122E0C3940840047F08809B
:1003E30005900122E0FF9001DFEFF0E0FF7E00784F
:1003F300007C007D01900172E0FBA3E0FAA3E0F929
:100403001208DC900122E0FF9001DFE0FEC3EF9EC3
:10041300900122F0EEFF900173E48FF012094890EF
:1004230001DFE0F5DD63DC40800FE5E35480FF90FE
:100433000122E04FF5E375DC029001DFE0B4FF1920
:1004430075DD0075DC0280119001DFE5DBF09001C2
:1004530063E0FF75DD0075DC00C2D930D81275DCAE
:100463000275D21075D41275E300C2DAC2D9C2D8AC
:1004730030DA23C2DAE5DA30E21FE5A220E7FB75C2
:10048300A15575A1AA75A98143870275A15575A1C7
:09049300AA75A900800375D8FFC9
:0B049C00D0D0D082D083D0F0D0E0326E
:100EA500120902FEC3648094E1400CD3EE64809481
:100EB500FA5004EE24E0FEC3EE648094C14012D3E0
:100EC500EE648094DA500AEE24C39000D3F0020F4A
:100ED500A2C3EE648094B14012D3EE648094B950FD
:100EE5000AEE24ED9000D3F0020FA2EE120A690F6C
:100EF5003A0D0F32200F96210F502B0F812E0F6BBD
:100F05002F0F79300F423A0F2A5C0F5D5F0F1C607F
:100F15000F897E00000FA29000D17408F09000D3D5
:100F25007415F080789000D37431F080709000D300
:100F35007402F080689000D37428F080609000D12E
:100F45007402F09000D37433F08052E49000D1F035
:100F55009000D37457F080459000D17402F0900052
:100F6500D3742DF080379000D17405F09000D374C0
:100F750016F080299000D37427F080219000D37457
:100F850037F080199000D17404F09000D304F080FC
:100F95000C9000D17404F09000D37408F07F147E97
:100FA500001217CC90011BE060FA12174090011B4C
:100FB500E060FA7F147E001217CCE49000D1F09027
:100FC50000D3F090011BE060FA12174090011BE07E
:020FD50060FAC0
:010FD70022F7
:1016F80090004F7401F012157390004FE02477F5B5
:1017080082E43401F583E02FF090004FE004F0E02C
:05171800C3944040E114
:01171D0022A9
:1011CC007800E6FF08E6900008CFF0A3EFF0E5C347
:1011DC0030E724900008E5C5F0A3E5C4F07BFF7A66
:1011EC001079E8900008E0547FFFA3E09001BACF9B
:1011FC00F0A3EFF01205129000D0E060257800E625
:10120C00249CFF18E634FFFEC3900009E09F900079
:10121C0008E09E500D900177E004F01216F81217BA
:10122C0060229000D0E0703E90011DE0FBA3E0FA3C
:10123C00A3E0F9120EA590011EE475F00112094805
:10124C0090011DE0FBA3E0FAA3E0F912090270166D
:10125C007BFF7A1079F3120EA57FC87E001217CC93
:06126C009000D07401F0B7
:011272002259
:100D6100120902FEC3648094E1400CD3EE648094C6
:100D7100FA5004EE24E0FEC3EE648094C14012D325
:100D8100EE648094DA500AEE24C39000D3F0020E90
:100D91006FC3EE648094B14012D3EE648094B95075
:100DA1000AEE24ED9000D3F0020E6FEE120A690EE6
:100DB100070D0DFF200E63210DDB230E1D2B0E4EA3
:100DC1002E0E382F0E46300E0F3A0DF75C0E2A5FAD
:100DD1000DE9600E567E00000E6FE49000D1F09098
:100DE10000D37440F0020E6F9000D17408F09000AF
:100DF100D37415F080789000D37431F08070900036
:100E0100D37402F080689000D37428F08060900061
:100E1100D17402F09000D37433F08052E49000D189
:100E2100F09000D37457F080459000D17402F09097
:100E310000D3742DF080379000D17405F09000D369
:100E41007416F080299000D37427F080219000D38C
:100E51007437F080199000D17404F09000D304F03D
:100E6100800C9000D17404F09000D37408F07F14CA
:100E71007E001217CC90011BE060FA12174090011E
:100E81001BE060FA7F147E001217CCE49000D1F0D1
:100E91009000D3F090011BE060FA12174090011B03
:030EA100E060FA14
:010EA400222B
:0B16A4009001ECEBF0A3EAF0A3E9F0EA
:1016AF00E4FF7E01EEC39D50189001ECE0FBA3E038
:1016BF00FAA3E0F98E8275830012091B2FFF0E80AB
:0116CF00E337
:0116D00022F7
:0E1514009001E6EBF0A3EAF0A3E9F0A3EDF0FE
:10152200E4A3F0A3F0FC9001E6E0FBA3E0FAA3E061
:10153200F990000112091B64AA60037F0022900047
:101542000212091BFCFD1216A49001EAEFF09001B1
:10155200E6E0FBA3E0FAA3E0F9CEECCE8E8275833F
:101562000012091B9001EBF06F60037F00227F01E4
:011572002256
:100AFF009001E1EFF0FD7B017A0079DB121514EF25
:050B0F007003020D2B34
:100B14009000DEE09001E2F024E17003020C021484
:0C0B24007003020C9624106003020D60A8
:100B3000E49001E3F0A3740CF0E4A3F0900165F0FD
:100B400090016404F0900166E0700B04F07BFF7A82
:100B500018791E1218549001237401F0A374AAF09E
:100B60009001E4E0900125F09001E2E0900126F090
:100B7000E4A3F09010F593900128F09010F5A3A352
:100B8000E493900129F074F52404F582E43410F51F
:100B900083E49390012AF0A37431F0A37451F0A37D
:100BA0007407F0A37420F09001E57401F09001E562
:100BB000E0FFC3940C501A74232FF582E43401F53E
:100BC00083E0FF9001E3E02FF09001E5E004F08086
:100BD000DC9001E3E090012FF07E007F337D007B0D
:100BE000017A017930120A9578907C007D017B01B1
:100BF0007A0179237E007F401208DC75D54053D4FA
:020C0000FC22D4
:100C0200E49001E3F0A37405F0E4A3F0900120E086
:100C1200700BC29604F0E4900175F0A3F0900123EA
:100C22007401F0A374AAF09001E4E0900125F09021
:100C320001E2E0900126F0E4A3F09001E504F090D7
:100C420001E5E0FFC39405501A74232FF582E434C2
:100C520001F583E0FF9001E3E02FF09001E5E0046D
:100C6200F080DC9001E3E0900128F07E007F3A7D85
:100C7200007B017A017929120A9578907C007D0126
:100C82007B017A0179237E007F401208DC75D54012
:040C920053D4FC2219
:100C9600E49001E3F0A37405F0E4A3F090011CE0F6
:100CA600700BC29604F0E4900170F0A3F09001235B
:100CB6007401F0A374AAF09001E4E0900125F0908D
:100CC60001E2E0900126F0E4A3F09001E504F09043
:100CD60001E5E0FFC39405501A74232FF582E4342E
:100CE60001F583E0FF9001E3E02FF09001E5E004D9
:100CF600F080DC9001E3E0900128F07E007F3A7DF1
:100D0600007B017A017929120A9578907C007D0191
:100D16007B017A0179237E007F401208DC75D5407D
:040D260053D4FC2284
:100D2A00229001E1E0FF7E0078237C017D017B01B6
:100D3A007A0079DB1208DC9001E1E0FF7E0078900E
:100D4A007C007D017B017A0179231208DC9001E1A4
:070D5A00E0F5D553D4FC22A3
:0218890023003A
:10163A00E49001E6F0F0C2967F327E001217CCD217
:10164A00967F327E001217CC9001E6E004F0E0D3D8
:10165A00940240E2C2AF7F0A7E001217CC75A155F0
:06166A0075A1AA43B110B6
:011670002257
:0F181E00900165E004F0C39432400312163A22A1
:1015C000EF24FE601F0470377BFF7A187989120DB3
:1015D00061C2967F0A7E001217CCD2967F0A7E00E7
:1015E0001217CC227BFF7A187989120D61C2967F7F
:1015F0000A7E001217CCD2967F0A7E001217CC22E8
:1014A300E49001E0F01217FA7F0A7E001217CC12C3
:1014B3001273C2967F057E001217CCD2967F057EEB
:1014C300001217CC121600D2AFE4F5D3F5D5900174
:1014D3001BF0900121F012171E7BFF7A1579C012C1
:1014E30018481217B412183B900121E060169001BE
:1014F30067E0600D9000D9E0FF120AFFE4900167F6
:10150300F012178075FF6F7F0A7E001217CC80D808
:0115130022B5
:0D183B0075A15575A1AA75FF4943B10122A1
:1017FA0075A15575A1AAE5B954F84404F5B9E4F5FB
:02180A00A12219
:0E182D00EF4E600905A1EF1F70011E80F3222F
:1017CC00AD07AC06ED4C600E7FE87E0312182DEDD4
:0717DC001D70011C80EE22CC
:0418820043C6102227
:10127300C29FD29EC29DC2CDC2CC4387809001E162
:10128300120A3800000082E47B0AFAF9F89001E1BF
:10129300E0FCA3E0FDA3E0FEA3E0FF12099A9001A6
:1012A300E5EBF09001E1E0FCA3E0FDA3E0FEA3E0A9
:1012B300FFE47B0AFAF9F812099A9001E1120A2C69
:1012C3009001E5E0C3940540259001E1E0FCA3E033
:1012D300FDA3E0FEA3E0FFE4FAF9F8EF2401FFEA3F
:1012E3003EFEE93DFDE83CFC9001E1120A2CE58954
:1012F300540F4420F58943C9A09001E1E0A3E0A382
:0D130300E0A3E0F404F58DD28ED299D29CC7
:0113100022BA
:080003003098FDC298AF99226C
:08186A008F993099FDC299220B
:0A186000C2C7D2C5D2C475C2F3227C
:0818720030C0FDC2C0AFC1226D
:08187A008FC130C1FDD2C12273
:1017E30075A15575A1AAEF600543B101800353B1FB
:0717F300FEE4F5A1F5FF2261
:031886008FFF22AF
:0A10D70043004C00000041004A00F5
:10171E0043928043938043920243930220910CE4C0
:10172E0090004BF090004A7403F02290004B74012D
:02173E00F02297
:0C18480090004CEBF0A3EAF0A3E9F022C2
:10142B00E49001E1F090004AE014601514603F1461
:10143B0060312403705720975990004A7401F08053
:10144B00517F0A7E001217CC20971190004A74032B
:10145B00F0A3E0703D9001E104F08036E490004A87
:10146B00F0802F30972C90004A7402F080247F0A72
:10147B007E001217CC30970DE490004AF09001E1FA
:10148B007402F0800D90004A7403F08005E4900024
:07149B004AF09001E1E0FFBF
:0114A2002227
:1017800012142BEF601590004CE0FBA3E0FAA3E0ED
:0B179000F94A600789828A83120A93DD
:01179B00222B
:0610E1004301F3000000D2
:10167100EF7009E58954F04DF5898024EFB401112B
:10168100CEEDCEEEC454F0FEE589540F4EF58980BF
:101691000FEFB40208C2CDC2CCC2C880037FFF22C3
:0316A1007F0022A5
:03000E00CBEFCB6A
:10001100C3E49DFFE49CCDEFCDFCEB7007EFF58AC7
:10002100ECF58C22EBB40107EDF58BECF58D22EBB1
:10003100B4020ECFEDCFEDF5CC8FCAECFFF5CD8F2D
:01004100CBF3
:01004200229B
:10180C00C2CDC2CCC2C9D2CBD2C8EF25E025E042B2
:02181C00C922DF
:10179C00C2CDC2CCD2C8C2C9EF25E025E0FFE5C955
:0817AC0054FD4F4401F5C92270
:0C1854009001F3EBF0A3EAF0A3E9F0220E
:1017B40053C9EF7D01E4FF1216717DF07CD8E4FF7C
:0817C40012000ED28CD2A92202
:03000B00021311CC
:10131100C0E0C0F0C083C082C0D075D0087DF07C31
:10132100D8E4FF12000E9001F3E0FBA3E0FAA3E082
:10133100F9EA494B600B9001F3E0A3E0A3E0120A44
:101341008F900120E0B40122900175E475F0011243
:101351000948FEC3E5F09450EE9400400DD29690FA
:101361000120E4F0900175F0A3F090011CE0B401BC
:1013710022900170E475F001120948FEC3E5F09472
:10138100DCEE9400400DD29690011CE4F0900170C7
:0E139100F0A3F0D0D0D082D083D0F0D0E032E4
:0300000002139F49
:0C139F00787FE4F6D8FD7581210213E68A
:10080C00E709F608DFFA8046E709F208DFFA803ECE
:10081C0088828C83E709F0A3DFFA8032E309F608BB
:10082C00DFFA8078E309F208DFFA807088828C8323
:10083C00E309F0A3DFFA806489828A83E0A3F608D7
:10084C00DFFA805889828A83E0A3F208DFFA804CB1
:10085C0080D280FA80C680D4806980F28033801088
:10086C0080A680EA809A80A880DA80E280CA8033F1
:10087C0089828A83ECFAE493A3C8C582C8CCC58369
:10088C00CCF0A3C8C582C8CCC583CCDFE9DEE78039
:10089C000D89828A83E493A3F608DFF9ECFAA9F0B8
:1008AC00EDFB2289828A83ECFAE0A3C8C582C8CC0E
:1008BC00C583CCF0A3C8C582C8CCC583CCDFEADE27
:1008CC00E880DB89828A83E493A3F208DFF980CC89
:1008DC0088F0EF60010E4E60C388F0ED2402B40482
:1008EC000050B9F582EB2402B4040050AF23234529
:0608FC00822390085C73EA
:10090200BB010689828A83E0225002E722BBFE02F3
:09091200E32289828A83E4932226
:10091B00BB010CE58229F582E5833AF583E0225091
:10092B0006E92582F8E622BBFE06E92582F8E222DB
:0D093B00E58229F582E5833AF583E49322F5
:10094800C5F0F8A3E028F0C5F0F8E582158270023A
:060958001583E038F022D7
:10095E0075F008758200EF2FFFEE33FECD33CDCC50
:10096E0033CCC58233C5829BED9AEC99E5829840D3
:10097E000CF582EE9BFEED9AFDEC99FC0FD5F0D6B0
:10098E00E4CEFBE4CDFAE4CCF9A88222B800C1B9DA
:10099E000059BA002DEC8BF084CFCECDFCE5F0CB18
:1009AE00F97818EF2FFFEE33FEED33FDEC33FCEB51
:1009BE0033FB10D703994004EB99FB0FD8E5E4F90C
:1009CE00FA227818EF2FFFEE33FEED33FDEC33FCF9
:1009DE00C933C910D7059BE99A4007EC9BFCE99AED
:1009EE00F90FD8E0E4C9FAE4CCFB2275F010EF2F32
:1009FE00FFEE33FEED33FDCC33CCC833C810D70732
:100A0E009BEC9AE899400AED9BFDEC9AFCE899F86C
:0E0A1E000FD5F0DAE4CDFBE4CCFAE4C8F922FF
:0C0A2C00ECF0A3EDF0A3EEF0A3EFF0223D
:100A3800A8828583F0D083D082120A4F120A4F12FF
:100A48000A4F120A4FE473E493A3C583C5F0C58324
:100A5800C8C582C8F0A3C583C5F0C583C8C582C808
:010A6800226B
:100A6900D083D082F8E4937012740193700DA3A31C
:100A790093F8740193F5828883E473740293686030
:060A8900EFA3A3A380DF30
:060A8F008A838982E473F2
:1004A700E51024BAF582E43401F583E005102290C3
:1004B70001B73007039001BAE475F001120ADF02B1
:1004C70009022000E97F2ED2008018EF540F2490F4
:1004D700D43440D4FF30040BEF24BFB41A005003C8
:1004E7002461FFE511600215110514E5147002057A
:1004F7001330070E9001B7E475F001120ADFEF021F
:100507000AC10216D17403D2078003E4C207F510AB
:100517009001B7120AF6E4F511F513F514E5116029
:10052700077F201204EA80F57512FFC201C200C2DC
:1005370002C203C205C206C2081204B6FF700D301C
:1005470007057F001204FBAF14AE1322B4255FC268
:10055700D5C2041204B6FF24D0B40A00501A75F0AD
:100567000A781130D50508B6FF0106C6A426F6207D
:10057700D5047002D20380D924CFB41A00EF5004F7
:10058700C2E5D2040206FCD20180C6D20080C0D2E6
:100597000280BCD2D580BAD20580B47F201204EA8B
:1005A7002002077401B5110040F11204A7FF1204DD
:1005B700EA020524D208D20680951204A7FB12048A
:1005C700A7FA1204A7F94A4B700679CD7A077BFF81
:1005D70020022EE511602A7E008E827583001209A3
:1005E7001B60060EEE651270F0C2D5EBC0E0EAC0E4
:1005F700E0E9C0E0EE120743D0E0F9D0E0FAD0E03E
:10060700FB120902FF60AAEBC0E0EAC0E0E9C0E024
:100617001204EAD0E02401F9D0E03400FAD0E0FB7C
:10062700E5120460DCD512D980877BFF7A07793F12
:10063700D202809C791080027908C206C20880081D
:10064700D2D5790A8004790AC2D5E512047002F579
:1006570012E4FAFDFEFF1204A7FC7B082001131227
:1006670004A7FD7B1030000A1204A7FE1204A7FF9F
:100677007B20EC3382D592D55013C3E43000069F1C
:10068700FFE49EFEE42001039DFDE49CFCE4CBF81F
:10069700C201EC700CCFCECDCCE824F8F870F38013
:1006A70017C3EF33FFEE33FEED33FDEC33FCEB33D3
:1006B700FB994002FB0FD8E9EB300105F8D0E0C405
:1006C70048B201C0E00AEC4D4E4F78207B0070C263
:1006D700EAB5120040BCC0E0120745D0F0D0E020D8
:1006E7000104C4C0E0C4B201C0F01204D3D0F0D5F5
:1006F700F0EB020524120A6905C153063B5805921F
:100707004C058E42063F4F06474406474905A74317
:08071700064D5506314606317E
:10071F004506314707ED5005962D059A2E05BD2B41
:10072F00059E2305BB2007D62A055648000005B5B0
:10073F003F3F3F00790AA2D5200314300509B910B5
:10074F00020404B9080104A2D520060250010420B6
:10075F0002689202B511005034C0E07F20300319B7
:10076F007F30A20272067205500F12079CC202C29E
:10077F0006C205C2087F30800F300503E9C0E012C2
:10078F0004EA300503D0E0F9D0E0B511CC300517FD
:10079F007F30B9100C1204EA7F583004077F78803D
:1007AF0003B908031204EA3002057F2D0204EA7F21
:1007BF00202008F87F2B2006F322920280CF286E8C
:1007CF00756C6C2900D2011204A73001F8C20178B0
:1007DF001130D50108F60205562D50434958120421
:1007EF00A72403B405004001E49007E8931204DB4B
:0D07FF00743A1204DBD20375110402063BAC
:101573009001EF120AD37810EC4D4E4F70047CA506
:101583007DA5C3EC13FCED13FDEE13FEEF13FF502B
:1015930010EC64CCFCED644CFDEE644EFEEF64CEC7
:1015A300FFD8DF9001EF120A2CEE547FFE22900148
:0D15B300EFEEF0EFA3F0A374A5F0A3F0227B
:100A9500EF4E6012EF60010EEDBB010B89828A8378
:100AA500F0A3DFFCDEFA2289F05007F709DFFCA985
:0C0AB500F022BBFEFCF309DFFCA9F022DC
:1013AB000214A3E493A3F8E493A34003F68001F2A1
:1013BB0008DFF48029E493A3F85407240CC8C33343
:1013CB00C4540F4420C8834004F456800146F6DF12
:1013DB00E4800B0102040810204080900FD8E47EBB
:1013EB00019360BCA3FF543F30E509541FFEE49307
:1013FB00A360010ECF54C025E060A840B8E493A3CE
:10140B00FAE493A3F8E493A3C8C582C8CAC583CAF8
:10141B00F0A3C8C582C8CAC583CADFE9DEE780BEB0
:0110E7000008
:100AC100BB010689828A83F0225002F722BBFE0114
:020AD100F3220E
:0C0AD300E0FCA3E0FDA3E0FEA3E0FF2296
:100ADF00F8E0FBA3A3E0F925F0F0E58215827002A0
:070AEF001583E0FA38F02244
:090AF600EBF0A3EAF0A3E9F02201
:1016D100EFB40A07740D1216DC740A309811A89938
:1016E100B8130CC2983098FDA899C298B811F63079
:0716F10099FDC299F5992251
:00000001FF
